{
  "contractName": "Vaccinations",
  "abi": [
    {
      "constant": true,
      "inputs": [
        {
          "name": "",
          "type": "uint256"
        }
      ],
      "name": "petitions",
      "outputs": [
        {
          "name": "petitioner",
          "type": "address"
        },
        {
          "name": "name",
          "type": "string"
        },
        {
          "name": "votesReceived",
          "type": "uint8"
        },
        {
          "name": "added",
          "type": "bool"
        }
      ],
      "payable": false,
      "stateMutability": "view",
      "type": "function"
    },
    {
      "constant": true,
      "inputs": [
        {
          "name": "",
          "type": "uint256"
        }
      ],
      "name": "authorities",
      "outputs": [
        {
          "name": "",
          "type": "address"
        }
      ],
      "payable": false,
      "stateMutability": "view",
      "type": "function"
    },
    {
      "inputs": [
        {
          "name": "a1",
          "type": "address"
        },
        {
          "name": "a2",
          "type": "address"
        },
        {
          "name": "a3",
          "type": "address"
        }
      ],
      "payable": false,
      "stateMutability": "nonpayable",
      "type": "constructor"
    },
    {
      "constant": false,
      "inputs": [
        {
          "name": "_petitioner",
          "type": "address"
        }
      ],
      "name": "vote",
      "outputs": [],
      "payable": false,
      "stateMutability": "nonpayable",
      "type": "function"
    },
    {
      "constant": false,
      "inputs": [
        {
          "name": "_name",
          "type": "string"
        }
      ],
      "name": "submitPetition",
      "outputs": [],
      "payable": false,
      "stateMutability": "nonpayable",
      "type": "function"
    },
    {
      "constant": true,
      "inputs": [],
      "name": "viewPetitions",
      "outputs": [
        {
          "components": [
            {
              "name": "petitioner",
              "type": "address"
            },
            {
              "name": "name",
              "type": "string"
            },
            {
              "name": "votesReceived",
              "type": "uint8"
            },
            {
              "name": "voters",
              "type": "address[]"
            },
            {
              "name": "added",
              "type": "bool"
            }
          ],
          "name": "",
          "type": "tuple[]"
        }
      ],
      "payable": false,
      "stateMutability": "view",
      "type": "function"
    },
    {
      "constant": false,
      "inputs": [
        {
          "name": "petitioner",
          "type": "address"
        }
      ],
      "name": "removePetition",
      "outputs": [],
      "payable": false,
      "stateMutability": "nonpayable",
      "type": "function"
    },
    {
      "constant": true,
      "inputs": [
        {
          "name": "_voter",
          "type": "address"
        },
        {
          "name": "_voters",
          "type": "address[]"
        }
      ],
      "name": "checkIfVoted",
      "outputs": [
        {
          "name": "",
          "type": "bool"
        }
      ],
      "payable": false,
      "stateMutability": "pure",
      "type": "function"
    },
    {
      "constant": true,
      "inputs": [
        {
          "name": "_vacc",
          "type": "address"
        }
      ],
      "name": "checkIfVaccinationAuthority",
      "outputs": [
        {
          "name": "trust",
          "type": "bool"
        }
      ],
      "payable": false,
      "stateMutability": "view",
      "type": "function"
    },
    {
      "constant": false,
      "inputs": [
        {
          "name": "_id",
          "type": "string"
        },
        {
          "name": "_name",
          "type": "string"
        },
        {
          "name": "_gender",
          "type": "string"
        },
        {
          "name": "_nationality",
          "type": "string"
        },
        {
          "name": "_user_address",
          "type": "address"
        }
      ],
      "name": "registerUser",
      "outputs": [],
      "payable": false,
      "stateMutability": "nonpayable",
      "type": "function"
    },
    {
      "constant": false,
      "inputs": [
        {
          "name": "user_id",
          "type": "string"
        },
        {
          "name": "_vacName",
          "type": "string"
        },
        {
          "name": "_batchID",
          "type": "string"
        },
        {
          "name": "location",
          "type": "string"
        },
        {
          "name": "date",
          "type": "string"
        }
      ],
      "name": "addVaccination",
      "outputs": [],
      "payable": false,
      "stateMutability": "nonpayable",
      "type": "function"
    },
    {
      "constant": true,
      "inputs": [
        {
          "name": "user_id",
          "type": "string"
        }
      ],
      "name": "userExists",
      "outputs": [
        {
          "name": "",
          "type": "bool"
        }
      ],
      "payable": false,
      "stateMutability": "view",
      "type": "function"
    },
    {
      "constant": true,
      "inputs": [
        {
          "name": "user_id",
          "type": "string"
        }
      ],
      "name": "calculateHash",
      "outputs": [
        {
          "name": "",
          "type": "bytes32"
        }
      ],
      "payable": false,
      "stateMutability": "view",
      "type": "function"
    },
    {
      "constant": true,
      "inputs": [
        {
          "name": "user_id",
          "type": "string"
        }
      ],
      "name": "getVaccinationRecord",
      "outputs": [
        {
          "components": [
            {
              "name": "user_id",
              "type": "string"
            },
            {
              "name": "user_address",
              "type": "address"
            },
            {
              "name": "nationality",
              "type": "string"
            },
            {
              "name": "name",
              "type": "string"
            },
            {
              "name": "gender",
              "type": "string"
            },
            {
              "name": "createdBy",
              "type": "address"
            },
            {
              "name": "detailshash",
              "type": "bytes32"
            },
            {
              "components": [
                {
                  "name": "name",
                  "type": "string"
                },
                {
                  "name": "batch_id",
                  "type": "string"
                },
                {
                  "name": "addedBy",
                  "type": "address"
                },
                {
                  "name": "administrationDate",
                  "type": "string"
                },
                {
                  "name": "location",
                  "type": "string"
                }
              ],
              "name": "vaccinations",
              "type": "tuple[]"
            }
          ],
          "name": "",
          "type": "tuple"
        }
      ],
      "payable": false,
      "stateMutability": "view",
      "type": "function"
    },
    {
      "constant": true,
      "inputs": [
        {
          "name": "user_id",
          "type": "string"
        }
      ],
      "name": "getVaccinationHash",
      "outputs": [
        {
          "name": "",
          "type": "bytes32"
        }
      ],
      "payable": false,
      "stateMutability": "view",
      "type": "function"
    },
    {
      "constant": true,
      "inputs": [
        {
          "name": "user_id",
          "type": "string"
        }
      ],
      "name": "getVaccinationRecordPublic",
      "outputs": [
        {
          "name": "",
          "type": "string"
        }
      ],
      "payable": false,
      "stateMutability": "view",
      "type": "function"
    },
    {
      "constant": true,
      "inputs": [],
      "name": "getVaccinationAuthorities",
      "outputs": [
        {
          "name": "",
          "type": "address[]"
        }
      ],
      "payable": false,
      "stateMutability": "view",
      "type": "function"
    },
    {
      "constant": true,
      "inputs": [
        {
          "name": "_add",
          "type": "address"
        }
      ],
      "name": "getAuthorityName",
      "outputs": [
        {
          "name": "",
          "type": "string"
        }
      ],
      "payable": false,
      "stateMutability": "view",
      "type": "function"
    }
  ],
  "bytecode": "0x60806040523480156200001157600080fd5b5060405160608062004d348339810180604052620000339190810190620003d1565b60018390806001815401808255809150509060018203906000526020600020016000909192909190916101000a81548173ffffffffffffffffffffffffffffffffffffffff021916908373ffffffffffffffffffffffffffffffffffffffff1602179055505060018290806001815401808255809150509060018203906000526020600020016000909192909190916101000a81548173ffffffffffffffffffffffffffffffffffffffff021916908373ffffffffffffffffffffffffffffffffffffffff1602179055505060018190806001815401808255809150509060018203906000526020600020016000909192909190916101000a81548173ffffffffffffffffffffffffffffffffffffffff021916908373ffffffffffffffffffffffffffffffffffffffff160217905550506040805190810160405280600381526020017f4b454d00000000000000000000000000000000000000000000000000000000008152506000808573ffffffffffffffffffffffffffffffffffffffff1673ffffffffffffffffffffffffffffffffffffffff1681526020019081526020016000209080519060200190620001ee9291906200030c565b506040805190810160405280600581526020017f4149494d530000000000000000000000000000000000000000000000000000008152506000808473ffffffffffffffffffffffffffffffffffffffff1673ffffffffffffffffffffffffffffffffffffffff1681526020019081526020016000209080519060200190620002789291906200030c565b506040805190810160405280600281526020017f4a4a0000000000000000000000000000000000000000000000000000000000008152506000808373ffffffffffffffffffffffffffffffffffffffff1673ffffffffffffffffffffffffffffffffffffffff1681526020019081526020016000209080519060200190620003029291906200030c565b5050505062000447565b828054600181600116156101000203166002900490600052602060002090601f016020900481019282601f106200034f57805160ff191683800117855562000380565b8280016001018555821562000380579182015b828111156200037f57825182559160200191906001019062000362565b5b5090506200038f919062000393565b5090565b620003b891905b80821115620003b45760008160009055506001016200039a565b5090565b90565b6000620003c9825162000427565b905092915050565b600080600060608486031215620003e757600080fd5b6000620003f786828701620003bb565b93505060206200040a86828701620003bb565b92505060406200041d86828701620003bb565b9150509250925092565b600073ffffffffffffffffffffffffffffffffffffffff82169050919050565b6148dd80620004576000396000f3006080604052600436106100f1576000357c0100000000000000000000000000000000000000000000000000000000900463ffffffff168063010ca754146100f65780631e8e47f1146101335780633ad50ded1461015e5780633d9b9ada1461019e578063494503d4146101db57806349f89b2e146102185780635fbb847f146102555780636dd7d8ea1461027e578063973378be146102a75780639e5d79b7146102d2578063a8cbcecd146102fb578063b2989f3b14610338578063b7c89fc014610375578063c34a43ff1461039e578063d29eab2b146103db578063e5e69caa14610404578063fddc968e14610441575b600080fd5b34801561010257600080fd5b5061011d60048036036101189190810190613b0b565b61047e565b60405161012a919061451e565b60405180910390f35b34801561013f57600080fd5b50610148610525565b60405161015591906144da565b60405180910390f35b34801561016a57600080fd5b5061018560048036036101809190810190613d8f565b6105b3565b604051610195949392919061448e565b60405180910390f35b3480156101aa57600080fd5b506101c560048036036101c09190810190613b88565b6106c4565b6040516101d29190614554565b60405180910390f35b3480156101e757600080fd5b5061020260048036036101fd9190810190613d8f565b610e66565b60405161020f9190614473565b60405180910390f35b34801561022457600080fd5b5061023f600480360361023a9190810190613b88565b610ea4565b60405161024c9190614539565b60405180910390f35b34801561026157600080fd5b5061027c60048036036102779190810190613bc9565b610f1c565b005b34801561028a57600080fd5b506102a560048036036102a09190810190613b0b565b611363565b005b3480156102b357600080fd5b506102bc6118ab565b6040516102c991906144fc565b60405180910390f35b3480156102de57600080fd5b506102f960048036036102f49190810190613ca0565b611ac9565b005b34801561030757600080fd5b50610322600480360361031d9190810190613b88565b611da0565b60405161032f9190614539565b60405180910390f35b34801561034457600080fd5b5061035f600480360361035a9190810190613b88565b612451565b60405161036c9190614696565b60405180910390f35b34801561038157600080fd5b5061039c60048036036103979190810190613b0b565b612dbd565b005b3480156103aa57600080fd5b506103c560048036036103c09190810190613b34565b613037565b6040516103d2919061451e565b60405180910390f35b3480156103e757600080fd5b5061040260048036036103fd9190810190613b88565b6130b5565b005b34801561041057600080fd5b5061042b60048036036104269190810190613b0b565b61333b565b6040516104389190614554565b60405180910390f35b34801561044d57600080fd5b5061046860048036036104639190810190613b88565b61341b565b604051610475919061451e565b60405180910390f35b6000806000809150600090505b60018054905081101561051b576001818154811015156104a757fe5b9060005260206000200160009054906101000a900473ffffffffffffffffffffffffffffffffffffffff1673ffffffffffffffffffffffffffffffffffffffff168473ffffffffffffffffffffffffffffffffffffffff16141561050e576001915061051b565b808060010191505061048b565b8192505050919050565b606060018054806020026020016040519081016040528092919081815260200182805480156105a957602002820191906000526020600020905b8160009054906101000a900473ffffffffffffffffffffffffffffffffffffffff1673ffffffffffffffffffffffffffffffffffffffff168152602001906001019080831161055f575b5050505050905090565b6002818154811015156105c257fe5b90600052602060002090600502016000915090508060000160009054906101000a900473ffffffffffffffffffffffffffffffffffffffff1690806001018054600181600116156101000203166002900480601f0160208091040260200160405190810160405280929190818152602001828054600181600116156101000203166002900480156106945780601f1061066957610100808354040283529160200191610694565b820191906000526020600020905b81548152906001019060200180831161067757829003601f168201915b5050505050908060020160009054906101000a900460ff16908060040160009054906101000a900460ff16905084565b60608060006060806003866040518082805190602001908083835b60208310151561070457805182526020820191506020810190506020830392506106df565b6001836020036101000a03801982511681845116808217855250505050505090500191505090815260200160405180910390206000018054600181600116156101000203166002900480601f0160208091040260200160405190810160405280929190818152602001828054600181600116156101000203166002900480156107ce5780601f106107a3576101008083540402835291602001916107ce565b820191906000526020600020905b8154815290600101906020018083116107b157829003601f168201915b50505050509350600084511415151561081c576040517f08c379a000000000000000000000000000000000000000000000000000000000815260040161081390614596565b60405180910390fd5b6003866040518082805190602001908083835b602083101515610854578051825260208201915060208101905060208303925061082f565b6001836020036101000a038019825116818451168082178552505050505050905001915050908152602001604051809103902060070180549050925060206040519081016040528060008152509150602060405190810160405280600081525090506000831115610b14576003866040518082805190602001908083835b6020831015156108f757805182526020820191506020810190506020830392506108d2565b6001836020036101000a03801982511681845116808217855250505050505090500191505090815260200160405180910390206007016001840381548110151561093d57fe5b90600052602060002090600502016000018054600181600116156101000203166002900480601f0160208091040260200160405190810160405280929190818152602001828054600181600116156101000203166002900480156109e25780601f106109b7576101008083540402835291602001916109e2565b820191906000526020600020905b8154815290600101906020018083116109c557829003601f168201915b505050505091506003866040518082805190602001908083835b602083101515610a2157805182526020820191506020810190506020830392506109fc565b6001836020036101000a038019825116818451168082178552505050505050905001915050908152602001604051809103902060070160018403815481101515610a6757fe5b90600052602060002090600502016003018054600181600116156101000203166002900480601f016020809104026020016040519081016040528092919081815260200182805460018160011615610100020316600290048015610b0c5780601f10610ae157610100808354040283529160200191610b0c565b820191906000526020600020905b815481529060010190602001808311610aef57829003601f168201915b505050505090505b856003876040518082805190602001908083835b602083101515610b4d5780518252602082019150602081019050602083039250610b28565b6001836020036101000a03801982511681845116808217855250505050505090500191505090815260200160405180910390206003016003886040518082805190602001908083835b602083101515610bbb5780518252602082019150602081019050602083039250610b96565b6001836020036101000a038019825116818451168082178552505050505050905001915050908152602001604051809103902060020184846040516020018086805190602001908083835b602083101515610c2b5780518252602082019150602081019050602083039250610c06565b6001836020036101000a038019825116818451168082178552505050505050905001807f2c0000000000000000000000000000000000000000000000000000000000000081525060010185805460018160011615610100020316600290048015610ccc5780601f10610caa576101008083540402835291820191610ccc565b820191906000526020600020905b815481529060010190602001808311610cb8575b5050807f2c0000000000000000000000000000000000000000000000000000000000000081525060010184805460018160011615610100020316600290048015610d4d5780601f10610d2b576101008083540402835291820191610d4d565b820191906000526020600020905b815481529060010190602001808311610d39575b5050807f2c0000000000000000000000000000000000000000000000000000000000000081525060010183805190602001908083835b602083101515610da85780518252602082019150602081019050602083039250610d83565b6001836020036101000a038019825116818451168082178552505050505050905001807f2c0000000000000000000000000000000000000000000000000000000000000081525060010182805190602001908083835b602083101515610e235780518252602082019150602081019050602083039250610dfe565b6001836020036101000a03801982511681845116808217855250505050505090500195505050505050604051602081830303815290604052945050505050919050565b600181815481101515610e7557fe5b906000526020600020016000915054906101000a900473ffffffffffffffffffffffffffffffffffffffff1681565b60006003826040518082805190602001908083835b602083101515610ede5780518252602082019150602081019050602083039250610eb9565b6001836020036101000a0380198251168184511680821785525050505050509050019150509081526020016040518091039020600601549050919050565b610f253361047e565b1515610f66576040517f08c379a0000000000000000000000000000000000000000000000000000000008152600401610f5d90614616565b60405180910390fd5b60001515610f738661341b565b1515141515610fb7576040517f08c379a0000000000000000000000000000000000000000000000000000000008152600401610fae90614576565b60405180910390fd5b6004859080600181540180825580915050906001820390600052602060002001600090919290919091509080519060200190610ff4929190613547565b5050836003866040518082805190602001908083835b60208310151561102f578051825260208201915060208101905060208303925061100a565b6001836020036101000a03801982511681845116808217855250505050505090500191505090815260200160405180910390206003019080519060200190611078929190613547565b50826003866040518082805190602001908083835b6020831015156110b2578051825260208201915060208101905060208303925061108d565b6001836020036101000a038019825116818451168082178552505050505050905001915050908152602001604051809103902060040190805190602001906110fb929190613547565b50846003866040518082805190602001908083835b6020831015156111355780518252602082019150602081019050602083039250611110565b6001836020036101000a0380198251168184511680821785525050505050509050019150509081526020016040518091039020600001908051906020019061117e929190613547565b50336003866040518082805190602001908083835b6020831015156111b85780518252602082019150602081019050602083039250611193565b6001836020036101000a038019825116818451168082178552505050505050905001915050908152602001604051809103902060050160006101000a81548173ffffffffffffffffffffffffffffffffffffffff021916908373ffffffffffffffffffffffffffffffffffffffff160217905550816003866040518082805190602001908083835b6020831015156112655780518252602082019150602081019050602083039250611240565b6001836020036101000a038019825116818451168082178552505050505050905001915050908152602001604051809103902060020190805190602001906112ae929190613547565b50806003866040518082805190602001908083835b6020831015156112e857805182526020820191506020810190506020830392506112c3565b6001836020036101000a038019825116818451168082178552505050505050905001915050908152602001604051809103902060010160006101000a81548173ffffffffffffffffffffffffffffffffffffffff021916908373ffffffffffffffffffffffffffffffffffffffff1602179055505050505050565b600061136e3361047e565b15156113af576040517f08c379a00000000000000000000000000000000000000000000000000000000081526004016113a690614616565b60405180910390fd5b600090505b6002805490508110156118a7578173ffffffffffffffffffffffffffffffffffffffff166002828154811015156113e757fe5b906000526020600020906005020160000160009054906101000a900473ffffffffffffffffffffffffffffffffffffffff1673ffffffffffffffffffffffffffffffffffffffff16141561167257600015156114e73360028481548110151561144c57fe5b90600052602060002090600502016003018054806020026020016040519081016040528092919081815260200182805480156114dd57602002820191906000526020600020905b8160009054906101000a900473ffffffffffffffffffffffffffffffffffffffff1673ffffffffffffffffffffffffffffffffffffffff1681526020019060010190808311611493575b5050505050613037565b151514151561152b576040517f08c379a000000000000000000000000000000000000000000000000000000000815260040161152290614636565b60405180910390fd5b6000151560028281548110151561153e57fe5b906000526020600020906005020160040160009054906101000a900460ff1615151415156115a1576040517f08c379a0000000000000000000000000000000000000000000000000000000008152600401611598906145f6565b60405180910390fd5b60016002828154811015156115b257fe5b906000526020600020906005020160020160008282829054906101000a900460ff160192506101000a81548160ff021916908360ff1602179055506002818154811015156115fc57fe5b90600052602060002090600502016003013390806001815401808255809150509060018203906000526020600020016000909192909190916101000a81548173ffffffffffffffffffffffffffffffffffffffff021916908373ffffffffffffffffffffffffffffffffffffffff160217905550505b6001600260018054905081151561168557fe5b040160028281548110151561169657fe5b906000526020600020906005020160020160009054906101000a900460ff1660ff16101580156116f75750600015156002828154811015156116d457fe5b906000526020600020906005020160040160009054906101000a900460ff161515145b1561189a57600160028281548110151561170d57fe5b906000526020600020906005020160000160009054906101000a900473ffffffffffffffffffffffffffffffffffffffff1690806001815401808255809150509060018203906000526020600020016000909192909190916101000a81548173ffffffffffffffffffffffffffffffffffffffff021916908373ffffffffffffffffffffffffffffffffffffffff160217905550506002818154811015156117b157fe5b90600052602060002090600502016001016000806002848154811015156117d457fe5b906000526020600020906005020160000160009054906101000a900473ffffffffffffffffffffffffffffffffffffffff1673ffffffffffffffffffffffffffffffffffffffff1673ffffffffffffffffffffffffffffffffffffffff168152602001908152602001600020908054600181600116156101000203166002900461185f9291906135c7565b50600160028281548110151561187157fe5b906000526020600020906005020160040160006101000a81548160ff0219169083151502179055505b80806001019150506113b4565b5050565b60606002805480602002602001604051908101604052809291908181526020016000905b82821015611ac0578382906000526020600020906005020160a060405190810160405290816000820160009054906101000a900473ffffffffffffffffffffffffffffffffffffffff1673ffffffffffffffffffffffffffffffffffffffff1673ffffffffffffffffffffffffffffffffffffffff168152602001600182018054600181600116156101000203166002900480601f0160208091040260200160405190810160405280929190818152602001828054600181600116156101000203166002900480156119e25780601f106119b7576101008083540402835291602001916119e2565b820191906000526020600020905b8154815290600101906020018083116119c557829003601f168201915b505050505081526020016002820160009054906101000a900460ff1660ff1660ff16815260200160038201805480602002602001604051908101604052809291908181526020018280548015611a8d57602002820191906000526020600020905b8160009054906101000a900473ffffffffffffffffffffffffffffffffffffffff1673ffffffffffffffffffffffffffffffffffffffff1681526020019060010190808311611a43575b505050505081526020016004820160009054906101000a900460ff161515151581525050815260200190600101906118cf565b50505050905090565b611ad161364e565b611ada3361047e565b1515611b1b576040517f08c379a0000000000000000000000000000000000000000000000000000000008152600401611b1290614616565b60405180910390fd5b611b248661341b565b1515611b65576040517f08c379a0000000000000000000000000000000000000000000000000000000008152600401611b5c90614656565b60405180910390fd5b84816000018190525083816020018190525082816080018190525081816060018190525033816040019073ffffffffffffffffffffffffffffffffffffffff16908173ffffffffffffffffffffffffffffffffffffffff16815250506003866040518082805190602001908083835b602083101515611bf95780518252602082019150602081019050602083039250611bd4565b6001836020036101000a038019825116818451168082178552505050505050905001915050908152602001604051809103902060070181908060018154018082558091505090600182039060005260206000209060050201600090919290919091506000820151816000019080519060200190611c77929190613694565b506020820151816001019080519060200190611c94929190613694565b5060408201518160020160006101000a81548173ffffffffffffffffffffffffffffffffffffffff021916908373ffffffffffffffffffffffffffffffffffffffff1602179055506060820151816003019080519060200190611cf8929190613694565b506080820151816004019080519060200190611d15929190613694565b50505050611d2286611da0565b6003876040518082805190602001908083835b602083101515611d5a5780518252602082019150602081019050602083039250611d35565b6001836020036101000a03801982511681845116808217855250505050505090500191505090815260200160405180910390206006018160001916905550505050505050565b6000806060806003856040518082805190602001908083835b602083101515611dde5780518252602082019150602081019050602083039250611db9565b6001836020036101000a03801982511681845116808217855250505050505090500191505090815260200160405180910390206007018054905092506020604051908101604052806000815250915060206040519081016040528060008152509050600083111561209e576003856040518082805190602001908083835b602083101515611e815780518252602082019150602081019050602083039250611e5c565b6001836020036101000a038019825116818451168082178552505050505050905001915050908152602001604051809103902060070160018403815481101515611ec757fe5b90600052602060002090600502016000018054600181600116156101000203166002900480601f016020809104026020016040519081016040528092919081815260200182805460018160011615610100020316600290048015611f6c5780601f10611f4157610100808354040283529160200191611f6c565b820191906000526020600020905b815481529060010190602001808311611f4f57829003601f168201915b505050505091506003856040518082805190602001908083835b602083101515611fab5780518252602082019150602081019050602083039250611f86565b6001836020036101000a038019825116818451168082178552505050505050905001915050908152602001604051809103902060070160018403815481101515611ff157fe5b90600052602060002090600502016003018054600181600116156101000203166002900480601f0160208091040260200160405190810160405280929190818152602001828054600181600116156101000203166002900480156120965780601f1061206b57610100808354040283529160200191612096565b820191906000526020600020905b81548152906001019060200180831161207957829003601f168201915b505050505090505b846003866040518082805190602001908083835b6020831015156120d757805182526020820191506020810190506020830392506120b2565b6001836020036101000a03801982511681845116808217855250505050505090500191505090815260200160405180910390206003016003876040518082805190602001908083835b6020831015156121455780518252602082019150602081019050602083039250612120565b6001836020036101000a038019825116818451168082178552505050505050905001915050908152602001604051809103902060020184846040516020018086805190602001908083835b6020831015156121b55780518252602082019150602081019050602083039250612190565b6001836020036101000a038019825116818451168082178552505050505050905001807f2c00000000000000000000000000000000000000000000000000000000000000815250600101858054600181600116156101000203166002900480156122565780601f10612234576101008083540402835291820191612256565b820191906000526020600020905b815481529060010190602001808311612242575b5050807f2c00000000000000000000000000000000000000000000000000000000000000815250600101848054600181600116156101000203166002900480156122d75780601f106122b55761010080835404028352918201916122d7565b820191906000526020600020905b8154815290600101906020018083116122c3575b5050807f2c0000000000000000000000000000000000000000000000000000000000000081525060010183805190602001908083835b602083101515612332578051825260208201915060208101905060208303925061230d565b6001836020036101000a038019825116818451168082178552505050505050905001807f2c0000000000000000000000000000000000000000000000000000000000000081525060010182805190602001908083835b6020831015156123ad5780518252602082019150602081019050602083039250612388565b6001836020036101000a038019825116818451168082178552505050505050905001955050505050506040516020818303038152906040526040518082805190602001908083835b60208310151561241a57805182526020820191506020810190506020830392506123f5565b6001836020036101000a03801982511681845116808217855250505050505090500191505060405180910390209350505050919050565b612459613714565b60606003836040518082805190602001908083835b602083101515612493578051825260208201915060208101905060208303925061246e565b6001836020036101000a038019825116818451168082178552505050505050905001915050908152602001604051809103902060010160009054906101000a900473ffffffffffffffffffffffffffffffffffffffff1673ffffffffffffffffffffffffffffffffffffffff163373ffffffffffffffffffffffffffffffffffffffff16148061252857506125273361047e565b5b1515612569576040517f08c379a0000000000000000000000000000000000000000000000000000000008152600401612560906145b6565b60405180910390fd5b6003836040518082805190602001908083835b6020831015156125a1578051825260208201915060208101905060208303925061257c565b6001836020036101000a03801982511681845116808217855250505050505090500191505090815260200160405180910390206000018054600181600116156101000203166002900480601f01602080910402602001604051908101604052809291908181526020018280546001816001161561010002031660029004801561266b5780601f106126405761010080835404028352916020019161266b565b820191906000526020600020905b81548152906001019060200180831161264e57829003601f168201915b5050505050905060008151141515156126b9576040517f08c379a00000000000000000000000000000000000000000000000000000000081526004016126b090614596565b60405180910390fd5b6003836040518082805190602001908083835b6020831015156126f157805182526020820191506020810190506020830392506126cc565b6001836020036101000a03801982511681845116808217855250505050505090500191505090815260200160405180910390206101006040519081016040529081600082018054600181600116156101000203166002900480601f0160208091040260200160405190810160405280929190818152602001828054600181600116156101000203166002900480156127ca5780601f1061279f576101008083540402835291602001916127ca565b820191906000526020600020905b8154815290600101906020018083116127ad57829003601f168201915b505050505081526020016001820160009054906101000a900473ffffffffffffffffffffffffffffffffffffffff1673ffffffffffffffffffffffffffffffffffffffff1673ffffffffffffffffffffffffffffffffffffffff168152602001600282018054600181600116156101000203166002900480601f0160208091040260200160405190810160405280929190818152602001828054600181600116156101000203166002900480156128c25780601f10612897576101008083540402835291602001916128c2565b820191906000526020600020905b8154815290600101906020018083116128a557829003601f168201915b50505050508152602001600382018054600181600116156101000203166002900480601f0160208091040260200160405190810160405280929190818152602001828054600181600116156101000203166002900480156129645780601f1061293957610100808354040283529160200191612964565b820191906000526020600020905b81548152906001019060200180831161294757829003601f168201915b50505050508152602001600482018054600181600116156101000203166002900480601f016020809104026020016040519081016040528092919081815260200182805460018160011615610100020316600290048015612a065780601f106129db57610100808354040283529160200191612a06565b820191906000526020600020905b8154815290600101906020018083116129e957829003601f168201915b505050505081526020016005820160009054906101000a900473ffffffffffffffffffffffffffffffffffffffff1673ffffffffffffffffffffffffffffffffffffffff1673ffffffffffffffffffffffffffffffffffffffff16815260200160068201546000191660001916815260200160078201805480602002602001604051908101604052809291908181526020016000905b82821015612dad578382906000526020600020906005020160a06040519081016040529081600082018054600181600116156101000203166002900480601f016020809104026020016040519081016040528092919081815260200182805460018160011615610100020316600290048015612b595780601f10612b2e57610100808354040283529160200191612b59565b820191906000526020600020905b815481529060010190602001808311612b3c57829003601f168201915b50505050508152602001600182018054600181600116156101000203166002900480601f016020809104026020016040519081016040528092919081815260200182805460018160011615610100020316600290048015612bfb5780601f10612bd057610100808354040283529160200191612bfb565b820191906000526020600020905b815481529060010190602001808311612bde57829003601f168201915b505050505081526020016002820160009054906101000a900473ffffffffffffffffffffffffffffffffffffffff1673ffffffffffffffffffffffffffffffffffffffff1673ffffffffffffffffffffffffffffffffffffffff168152602001600382018054600181600116156101000203166002900480601f016020809104026020016040519081016040528092919081815260200182805460018160011615610100020316600290048015612cf35780601f10612cc857610100808354040283529160200191612cf3565b820191906000526020600020905b815481529060010190602001808311612cd657829003601f168201915b50505050508152602001600482018054600181600116156101000203166002900480601f016020809104026020016040519081016040528092919081815260200182805460018160011615610100020316600290048015612d955780601f10612d6a57610100808354040283529160200191612d95565b820191906000526020600020905b815481529060010190602001808311612d7857829003601f168201915b50505050508152505081526020019060010190612a9c565b5050505081525050915050919050565b60008090505b600280549050811015613033578173ffffffffffffffffffffffffffffffffffffffff16600282815481101515612df657fe5b906000526020600020906005020160000160009054906101000a900473ffffffffffffffffffffffffffffffffffffffff1673ffffffffffffffffffffffffffffffffffffffff161415613026576002600160028054905003815481101515612e5b57fe5b9060005260206000209060050201600282815481101515612e7857fe5b90600052602060002090600502016000820160009054906101000a900473ffffffffffffffffffffffffffffffffffffffff168160000160006101000a81548173ffffffffffffffffffffffffffffffffffffffff021916908373ffffffffffffffffffffffffffffffffffffffff16021790555060018201816001019080546001816001161561010002031660029004612f14929190613789565b506002820160009054906101000a900460ff168160020160006101000a81548160ff021916908360ff1602179055506003820181600301908054612f59929190613810565b506004820160009054906101000a900460ff168160040160006101000a81548160ff0219169083151502179055509050506002600160028054905003815481101515612fa157fe5b9060005260206000209060050201600080820160006101000a81549073ffffffffffffffffffffffffffffffffffffffff0219169055600182016000612fe79190613862565b6002820160006101000a81549060ff021916905560038201600061300b91906138aa565b6004820160006101000a81549060ff02191690555050613033565b8080600101915050612dc3565b5050565b6000806000809150600090505b83518110156130aa578473ffffffffffffffffffffffffffffffffffffffff16848281518110151561307257fe5b9060200190602002015173ffffffffffffffffffffffffffffffffffffffff16141561309d57600191505b8080600101915050613044565b819250505092915050565b60006130bf6138cb565b600091505b60028054905082101561318d573373ffffffffffffffffffffffffffffffffffffffff166002838154811015156130f757fe5b906000526020600020906005020160000160009054906101000a900473ffffffffffffffffffffffffffffffffffffffff1673ffffffffffffffffffffffffffffffffffffffff161415613180576040517f08c379a000000000000000000000000000000000000000000000000000000000815260040161317790614676565b60405180910390fd5b81806001019250506130c4565b6000151561319a3361047e565b15151415156131de576040517f08c379a00000000000000000000000000000000000000000000000000000000081526004016131d5906145d6565b60405180910390fd5b33816000019073ffffffffffffffffffffffffffffffffffffffff16908173ffffffffffffffffffffffffffffffffffffffff16815250506000816040019060ff16908160ff168152505082816020018190525060008160800190151590811515815250506002819080600181540180825580915050906001820390600052602060002090600502016000909192909190915060008201518160000160006101000a81548173ffffffffffffffffffffffffffffffffffffffff021916908373ffffffffffffffffffffffffffffffffffffffff16021790555060208201518160010190805190602001906132d4929190613694565b5060408201518160020160006101000a81548160ff021916908360ff1602179055506060820151816003019080519060200190613312929190613916565b5060808201518160040160006101000a81548160ff021916908315150217905550505050505050565b60606000808373ffffffffffffffffffffffffffffffffffffffff1673ffffffffffffffffffffffffffffffffffffffff1681526020019081526020016000208054600181600116156101000203166002900480601f01602080910402602001604051908101604052809291908181526020018280546001816001161561010002031660029004801561340f5780601f106133e45761010080835404028352916020019161340f565b820191906000526020600020905b8154815290600101906020018083116133f257829003601f168201915b50505050509050919050565b6000806000809150600090505b60048054905081101561353d5760048181548110151561344457fe5b9060005260206000200160405180828054600181600116156101000203166002900480156134a95780601f106134875761010080835404028352918201916134a9565b820191906000526020600020905b815481529060010190602001808311613495575b5050915050604051809103902060001916846040518082805190602001908083835b6020831015156134f057805182526020820191506020810190506020830392506134cb565b6001836020036101000a0380198251168184511680821785525050505050509050019150506040518091039020600019161415613530576001915061353d565b8080600101915050613428565b8192505050919050565b828054600181600116156101000203166002900490600052602060002090601f016020900481019282601f1061358857805160ff19168380011785556135b6565b828001600101855582156135b6579182015b828111156135b557825182559160200191906001019061359a565b5b5090506135c391906139a0565b5090565b828054600181600116156101000203166002900490600052602060002090601f016020900481019282601f10613600578054855561363d565b8280016001018555821561363d57600052602060002091601f016020900482015b8281111561363c578254825591600101919060010190613621565b5b50905061364a91906139a0565b5090565b60a0604051908101604052806060815260200160608152602001600073ffffffffffffffffffffffffffffffffffffffff16815260200160608152602001606081525090565b828054600181600116156101000203166002900490600052602060002090601f016020900481019282601f106136d557805160ff1916838001178555613703565b82800160010185558215613703579182015b828111156137025782518255916020019190600101906136e7565b5b50905061371091906139a0565b5090565b6101006040519081016040528060608152602001600073ffffffffffffffffffffffffffffffffffffffff168152602001606081526020016060815260200160608152602001600073ffffffffffffffffffffffffffffffffffffffff16815260200160008019168152602001606081525090565b828054600181600116156101000203166002900490600052602060002090601f016020900481019282601f106137c257805485556137ff565b828001600101855582156137ff57600052602060002091601f016020900482015b828111156137fe5782548255916001019190600101906137e3565b5b50905061380c91906139a0565b5090565b8280548282559060005260206000209081019282156138515760005260206000209182015b82811115613850578254825591600101919060010190613835565b5b50905061385e91906139c5565b5090565b50805460018160011615610100020316600290046000825580601f1061388857506138a7565b601f0160209004906000526020600020908101906138a691906139a0565b5b50565b50805460008255906000526020600020908101906138c891906139a0565b50565b60a060405190810160405280600073ffffffffffffffffffffffffffffffffffffffff16815260200160608152602001600060ff168152602001606081526020016000151581525090565b82805482825590600052602060002090810192821561398f579160200282015b8281111561398e5782518260006101000a81548173ffffffffffffffffffffffffffffffffffffffff021916908373ffffffffffffffffffffffffffffffffffffffff16021790555091602001919060010190613936565b5b50905061399c91906139c5565b5090565b6139c291905b808211156139be5760008160009055506001016139a6565b5090565b90565b613a0591905b80821115613a0157600081816101000a81549073ffffffffffffffffffffffffffffffffffffffff0219169055506001016139cb565b5090565b90565b6000613a148235614826565b905092915050565b600082601f8301121515613a2f57600080fd5b8135613a42613a3d826146e5565b6146b8565b91508181835260208401935060208101905083856020840282011115613a6757600080fd5b60005b83811015613a975781613a7d8882613a08565b845260208401935060208301925050600181019050613a6a565b5050505092915050565b600082601f8301121515613ab457600080fd5b8135613ac7613ac28261470d565b6146b8565b91508082526020830160208301858383011115613ae357600080fd5b613aee838284614850565b50505092915050565b6000613b038235614846565b905092915050565b600060208284031215613b1d57600080fd5b6000613b2b84828501613a08565b91505092915050565b60008060408385031215613b4757600080fd5b6000613b5585828601613a08565b925050602083013567ffffffffffffffff811115613b7257600080fd5b613b7e85828601613a1c565b9150509250929050565b600060208284031215613b9a57600080fd5b600082013567ffffffffffffffff811115613bb457600080fd5b613bc084828501613aa1565b91505092915050565b600080600080600060a08688031215613be157600080fd5b600086013567ffffffffffffffff811115613bfb57600080fd5b613c0788828901613aa1565b955050602086013567ffffffffffffffff811115613c2457600080fd5b613c3088828901613aa1565b945050604086013567ffffffffffffffff811115613c4d57600080fd5b613c5988828901613aa1565b935050606086013567ffffffffffffffff811115613c7657600080fd5b613c8288828901613aa1565b9250506080613c9388828901613a08565b9150509295509295909350565b600080600080600060a08688031215613cb857600080fd5b600086013567ffffffffffffffff811115613cd257600080fd5b613cde88828901613aa1565b955050602086013567ffffffffffffffff811115613cfb57600080fd5b613d0788828901613aa1565b945050604086013567ffffffffffffffff811115613d2457600080fd5b613d3088828901613aa1565b935050606086013567ffffffffffffffff811115613d4d57600080fd5b613d5988828901613aa1565b925050608086013567ffffffffffffffff811115613d7657600080fd5b613d8288828901613aa1565b9150509295509295909350565b600060208284031215613da157600080fd5b6000613daf84828501613af7565b91505092915050565b613dc1816147e3565b82525050565b6000613dd282614778565b808452602084019350613de483614746565b60005b82811015613e1657613dfa868351613db8565b613e03826147bc565b9150602086019550600181019050613de7565b50849250505092915050565b6000613e2d8261476d565b808452602084019350613e3f83614739565b60005b82811015613e7157613e55868351613db8565b613e5e826147af565b9150602086019550600181019050613e42565b50849250505092915050565b6000613e8882614783565b80845260208401935083602082028501613ea185614753565b60005b84811015613eda578383038852613ebc838351614290565b9250613ec7826147c9565b9150602088019750600181019050613ea4565b508196508694505050505092915050565b6000613ef68261478e565b80845260208401935083602082028501613f0f85614760565b60005b84811015613f48578383038852613f2a8383516143d9565b9250613f35826147d6565b9150602088019750600181019050613f12565b508196508694505050505092915050565b613f6281614803565b82525050565b613f718161480f565b82525050565b6000613f82826147a4565b808452613f9681602086016020860161485f565b613f9f81614892565b602085010191505092915050565b6000613fb882614799565b808452613fcc81602086016020860161485f565b613fd581614892565b602085010191505092915050565b6000602382527f5265636f726420616c72656164792065786973747320666f722074686973207560208301527f73657200000000000000000000000000000000000000000000000000000000006040830152606082019050919050565b6000601f82527f76616363696e6174696f6e207265636f726420646f65736e74206578697374006020830152604082019050919050565b6000603182527f4f6e6c79207468652075736572207468656d73656c766573206f72206120564160208301527f2063616e20766965772064657461696c730000000000000000000000000000006040830152606082019050919050565b6000601d82527f596f752061726520616c726561647920616e20617574686f72697479210000006020830152604082019050919050565b6000602482527f5468657927726520616c726561647920616464656420746f20617574686f726960208301527f74696573000000000000000000000000000000000000000000000000000000006040830152606082019050919050565b6000602882527f4f6e6c792056616363696e6174696f6e20417574686f7269746965732061726560208301527f20616c6c6f7765640000000000000000000000000000000000000000000000006040830152606082019050919050565b6000601d82527f596f7527766520616c726561647920766f74656420666f72207468656d0000006020830152604082019050919050565b6000601782527f55736572206e6f742079657420726567697374657265640000000000000000006020830152604082019050919050565b6000602582527f596f7520616c7265616479206861766520612070656e64696e6720612070657460208301527f6974696f6e0000000000000000000000000000000000000000000000000000006040830152606082019050919050565b600060a0830160008301516142a86000860182613db8565b50602083015184820360208601526142c08282613fad565b91505060408301516142d56040860182614464565b50606083015184820360608601526142ed8282613e22565b91505060808301516143026080860182613f59565b508091505092915050565b600061010083016000830151848203600086015261432b8282613fad565b91505060208301516143406020860182613db8565b50604083015184820360408601526143588282613fad565b915050606083015184820360608601526143728282613fad565b9150506080830151848203608086015261438c8282613fad565b91505060a08301516143a160a0860182613db8565b5060c08301516143b460c0860182613f68565b5060e083015184820360e08601526143cc8282613eeb565b9150508091505092915050565b600060a08301600083015184820360008601526143f68282613fad565b915050602083015184820360208601526144108282613fad565b91505060408301516144256040860182613db8565b506060830151848203606086015261443d8282613fad565b915050608083015184820360808601526144578282613fad565b9150508091505092915050565b61446d81614819565b82525050565b60006020820190506144886000830184613db8565b92915050565b60006080820190506144a36000830187613db8565b81810360208301526144b58186613fad565b90506144c46040830185614464565b6144d16060830184613f59565b95945050505050565b600060208201905081810360008301526144f48184613dc7565b905092915050565b600060208201905081810360008301526145168184613e7d565b905092915050565b60006020820190506145336000830184613f59565b92915050565b600060208201905061454e6000830184613f68565b92915050565b6000602082019050818103600083015261456e8184613f77565b905092915050565b6000602082019050818103600083015261458f81613fe3565b9050919050565b600060208201905081810360008301526145af81614040565b9050919050565b600060208201905081810360008301526145cf81614077565b9050919050565b600060208201905081810360008301526145ef816140d4565b9050919050565b6000602082019050818103600083015261460f8161410b565b9050919050565b6000602082019050818103600083015261462f81614168565b9050919050565b6000602082019050818103600083015261464f816141c5565b9050919050565b6000602082019050818103600083015261466f816141fc565b9050919050565b6000602082019050818103600083015261468f81614233565b9050919050565b600060208201905081810360008301526146b0818461430d565b905092915050565b6000604051905081810181811067ffffffffffffffff821117156146db57600080fd5b8060405250919050565b600067ffffffffffffffff8211156146fc57600080fd5b602082029050602081019050919050565b600067ffffffffffffffff82111561472457600080fd5b601f19601f8301169050602081019050919050565b6000602082019050919050565b6000602082019050919050565b6000602082019050919050565b6000602082019050919050565b600081519050919050565b600081519050919050565b600081519050919050565b600081519050919050565b600081519050919050565b600081519050919050565b6000602082019050919050565b6000602082019050919050565b6000602082019050919050565b6000602082019050919050565b600073ffffffffffffffffffffffffffffffffffffffff82169050919050565b60008115159050919050565b6000819050919050565b600060ff82169050919050565b600073ffffffffffffffffffffffffffffffffffffffff82169050919050565b6000819050919050565b82818337600083830152505050565b60005b8381101561487d578082015181840152602081019050614862565b8381111561488c576000848401525b50505050565b6000601f19601f83011690509190505600a265627a7a72305820ee004600f7f0bfe55c1420b30b66f005938e014c593486608d3392587e85ca516c6578706572696d656e74616cf50037",
  "source": "// SPDX-License-Identifier: MIT\npragma solidity >=0.4.22;\npragma experimental ABIEncoderV2;\n\ncontract Vaccinations {\n\n    struct vaccine {\n        string name;\n        string batch_id;\n        address addedBy;\n        string administrationDate;\n        string location;\n    }\n    \n    struct vaccination_record {\n        string user_id;\n        address user_address;\n        string nationality;\n        string name;\n        string gender; //1 for female, 0 for male\n        address createdBy;\n        bytes32 detailshash;\n        vaccine[] vaccinations;\n    }\n    \n    struct petition {\n        //those who want to become a vaccination authority\n        address petitioner;\n        string name;\n        uint8 votesReceived;\n        address[] voters;\n        bool added;\n    }\n    \n    mapping(address => string)  authority_name;\n    address[] public authorities;\n    petition[] public petitions;\n    //vaccination_record[] public vaccinationRecords;\n    mapping(string => vaccination_record) records;\n    string[] registered_users;\n\n    modifier onlyVaccinationAuthority() {\n        require(\n            checkIfVaccinationAuthority(msg.sender),\n            \"Only Vaccination Authorities are allowed\"\n        );\n        _;\n    }\n\n    constructor(address a1, address a2, address a3) {\n        authorities.push(a1);\n        authorities.push(a2);\n        authorities.push(a3);\n        authority_name[a1] = \"KEM\";\n        authority_name[a2] = \"AIIMS\";\n        authority_name[a3] = \"JJ\";\n    }\n\n    function vote(address _petitioner) public onlyVaccinationAuthority {\n        for (uint i = 0; i < petitions.length; i++) {\n            //add vote of the person being voted for\n            if (petitions[i].petitioner == _petitioner) {\n                require(\n                    checkIfVoted(msg.sender, petitions[i].voters) == false,\n                    \"You've already voted for them\"\n                );\n                require(\n                    petitions[i].added == false,\n                    \"They're already added to authorities\"\n                );\n                petitions[i].votesReceived += 1;\n                petitions[i].voters.push(msg.sender);\n            }\n            //next check if any votes for any petitions have reached the threshold, if so they should be added to authorities\n            if (\n                petitions[i].votesReceived >= authorities.length / 2 + 1 &&\n                petitions[i].added == false\n            ) {\n                authorities.push(petitions[i].petitioner); //add to trusted\n                authority_name[petitions[i].petitioner] = petitions[i].name;\n                petitions[i].added = true;\n            }\n        }\n    }\n\n    //call this function in order to submit a petition if you want to become a Vaccination Authority\n    function submitPetition(string memory _name) public {\n        for (uint i = 0; i < petitions.length; i++) {\n            if (petitions[i].petitioner == msg.sender) {\n                revert(\"You already have a pending a petition\");\n            }\n        }\n        require(\n            checkIfVaccinationAuthority(msg.sender) == false,\n            \"You are already an authority!\"\n        );\n        petition memory temp;\n        temp.petitioner = msg.sender;\n        temp.votesReceived = 0;\n        temp.name = _name;\n        temp.added = false;\n        petitions.push(temp);\n    }\n\n    function viewPetitions() public view returns (petition[] memory) {\n        return petitions;\n    }\n\n    //call this function to remove a petition from petitioner array\n    function removePetition(address petitioner) public {\n        for (uint i = 0; i < petitions.length; i++) {\n            if (petitions[i].petitioner == petitioner) {\n                petitions[i] = petitions[petitions.length - 1];\n                delete petitions[petitions.length - 1];\n                // petitions.pop();\n                break;\n            }\n        }\n    }\n\n    //call this function to check if a voter has already voted for this petitioner\n    function checkIfVoted(\n        address _voter,\n        address[] memory _voters\n    ) public pure returns (bool) {\n        bool voted = false;\n        for (uint i = 0; i < _voters.length; i++) {\n            if (_voters[i] == _voter) {\n                voted = true;\n            }\n        }\n        return voted;\n    }\n\n    function checkIfVaccinationAuthority(\n        address _vacc\n    ) public view returns (bool trust) {\n        bool canWeTrust = false;\n        for (uint i = 0; i < authorities.length; i++) {\n            if (_vacc == authorities[i]) {\n                canWeTrust = true;\n                break;\n            }\n        }\n        return canWeTrust;\n    }\n\n    function registerUser(\n        string memory _id,\n        string memory _name,\n        string memory _gender,\n        string memory _nationality,\n        address _user_address\n    ) public onlyVaccinationAuthority {\n        require(\n            userExists(_id) == false,\n            \"Record already exists for this user\"\n        );\n        registered_users.push(_id);\n        records[_id].name = _name;\n        records[_id].gender = _gender;\n        records[_id].user_id = _id;\n        records[_id].createdBy = msg.sender;\n        records[_id].nationality = _nationality;\n        records[_id].user_address = _user_address;\n    }\n\n    function addVaccination(\n        string memory user_id,\n        string memory _vacName,\n        string memory _batchID,\n        string memory location,\n        string memory date\n    ) public onlyVaccinationAuthority {\n        require(userExists(user_id), \"User not yet registered\");\n        vaccine memory temp;\n        temp.name = _vacName;\n        temp.batch_id = _batchID;\n        temp.location = location;\n        temp.administrationDate = date;\n        temp.addedBy = msg.sender;\n        records[user_id].vaccinations.push(temp);\n        records[user_id].detailshash = calculateHash(user_id);\n    }\n\n    function userExists(string memory user_id) public view returns (bool) {\n        bool exists = false;\n        for (uint i = 0; i < registered_users.length; i++) {\n            if (\n                keccak256(bytes(user_id)) ==\n                keccak256(bytes(registered_users[i]))\n            ) {\n                exists = true;\n                break;\n            }\n        }\n        return exists;\n    }\n\n    //take and store hash of: cnic and name of all vaccines and their dates\n\n    function calculateHash(\n        string memory user_id\n    ) public view returns (bytes32) {\n        uint numVaccines = records[user_id].vaccinations.length;\n        string memory latestVaccine = \"\";\n        string memory latestVaccineDate = \"\";\n        if (numVaccines > 0) {\n            latestVaccine = records[user_id].vaccinations[numVaccines - 1].name;\n            latestVaccineDate = records[user_id]\n                .vaccinations[numVaccines - 1]\n                .administrationDate;\n        }\n        return (\n            keccak256(\n                abi.encodePacked(\n                    user_id,\n                    \",\",\n                    records[user_id].name,\n                    \",\",\n                    records[user_id].nationality,\n                    \",\",\n                    latestVaccine,\n                    \",\",\n                    latestVaccineDate\n                )\n            )\n        );\n    }\n\n    function getVaccinationRecord(\n        string memory user_id\n    ) public view returns (vaccination_record memory) {\n        require(\n            msg.sender == records[user_id].user_address ||\n                checkIfVaccinationAuthority(msg.sender),\n            \"Only the user themselves or a VA can view details\"\n        );\n        bytes memory tempEmptyStringTest = bytes(records[user_id].user_id);\n        require(\n            tempEmptyStringTest.length != 0,\n            \"vaccination record doesnt exist\"\n        );\n        return records[user_id];\n    }\n\n    function getVaccinationHash(\n        string memory user_id\n    ) public view returns (bytes32) {\n        return records[user_id].detailshash;\n    }\n\n    function getVaccinationRecordPublic(\n        string memory user_id\n    ) public view returns (string memory) {\n        bytes memory tempEmptyStringTest = bytes(records[user_id].user_id);\n        require(\n            tempEmptyStringTest.length != 0,\n            \"vaccination record doesnt exist\"\n        );\n        uint numVaccines = records[user_id].vaccinations.length;\n        string memory latestVaccine = \"\";\n        string memory latestVaccineDate = \"\";\n        if (numVaccines > 0) {\n            latestVaccine = records[user_id].vaccinations[numVaccines - 1].name;\n            latestVaccineDate = records[user_id]\n                .vaccinations[numVaccines - 1]\n                .administrationDate;\n        }\n        return (\n            string(\n                abi.encodePacked(\n                    user_id,\n                    \",\",\n                    records[user_id].name,\n                    \",\",\n                    records[user_id].nationality,\n                    \",\",\n                    latestVaccine,\n                    \",\",\n                    latestVaccineDate\n                )\n            )\n        );\n    }\n\n    function getVaccinationAuthorities()\n        public\n        view\n        returns (address[] memory)\n    {\n        return authorities;\n    }\n\n    function getAuthorityName(\n        address _add\n    ) public view returns (string memory) {\n        return authority_name[_add];\n    }\n\n}\n",
  "sourcePath": "C:\\Users\\DELL\\Desktop\\major_project\\contracts\\test.sol",
  "compiler": {
    "name": "solc",
    "version": "0.4.22+commit.4cb486ee.Emscripten.clang"
  },
  "schemaVersion": "3.4.11",
  "updatedAt": "2023-04-28T10:28:53.957Z",
  "networkType": "ethereum",
  "devdoc": {
    "methods": {}
  },
  "userdoc": {
    "methods": {}
  }
}